{
  "contractName": "StorageData",
  "abi": [
    {
      "anonymous": false,
      "inputs": [
        {
          "indexed": false,
          "internalType": "address",
          "name": "_from",
          "type": "address"
        },
        {
          "indexed": false,
          "internalType": "string",
          "name": "_data",
          "type": "string"
        },
        {
          "indexed": false,
          "internalType": "uint256",
          "name": "_id",
          "type": "uint256"
        }
      ],
      "name": "stored",
      "type": "event"
    },
    {
      "constant": true,
      "inputs": [],
      "name": "data",
      "outputs": [
        {
          "internalType": "string",
          "name": "",
          "type": "string"
        }
      ],
      "payable": false,
      "stateMutability": "view",
      "type": "function"
    },
    {
      "constant": true,
      "inputs": [],
      "name": "id",
      "outputs": [
        {
          "internalType": "uint256",
          "name": "",
          "type": "uint256"
        }
      ],
      "payable": false,
      "stateMutability": "view",
      "type": "function"
    },
    {
      "constant": false,
      "inputs": [
        {
          "internalType": "string",
          "name": "_data",
          "type": "string"
        },
        {
          "internalType": "uint256",
          "name": "_id",
          "type": "uint256"
        }
      ],
      "name": "set",
      "outputs": [],
      "payable": false,
      "stateMutability": "nonpayable",
      "type": "function"
    },
    {
      "constant": true,
      "inputs": [],
      "name": "read",
      "outputs": [
        {
          "internalType": "string",
          "name": "",
          "type": "string"
        },
        {
          "internalType": "uint256",
          "name": "",
          "type": "uint256"
        }
      ],
      "payable": false,
      "stateMutability": "view",
      "type": "function"
    }
  ],
  "bytecode": "0x608060405234801561001057600080fd5b50610565806100206000396000f3fe608060405234801561001057600080fd5b506004361061004c5760003560e01c806357de26a41461005157806373d4a13a146100db5780638a42ebe91461015e578063af640d0f14610223575b600080fd5b610059610241565b6040518080602001838152602001828103825284818151815260200191508051906020019080838360005b8381101561009f578082015181840152602081019050610084565b50505050905090810190601f1680156100cc5780820380516001836020036101000a031916815260200191505b50935050505060405180910390f35b6100e36102ed565b6040518080602001828103825283818151815260200191508051906020019080838360005b83811015610123578082015181840152602081019050610108565b50505050905090810190601f1680156101505780820380516001836020036101000a031916815260200191505b509250505060405180910390f35b6102216004803603604081101561017457600080fd5b810190808035906020019064010000000081111561019157600080fd5b8201836020820111156101a357600080fd5b803590602001918460018302840111640100000000831117156101c557600080fd5b91908080601f016020809104026020016040519081016040528093929190818152602001838380828437600081840152601f19601f8201169050808301925050505050505091929192908035906020019092919050505061038b565b005b61022b610485565b6040518082815260200191505060405180910390f35b6060600080600154818054600181600116156101000203166002900480601f0160208091040260200160405190810160405280929190818152602001828054600181600116156101000203166002900480156102de5780601f106102b3576101008083540402835291602001916102de565b820191906000526020600020905b8154815290600101906020018083116102c157829003601f168201915b50505050509150915091509091565b60008054600181600116156101000203166002900480601f0160208091040260200160405190810160405280929190818152602001828054600181600116156101000203166002900480156103835780601f1061035857610100808354040283529160200191610383565b820191906000526020600020905b81548152906001019060200180831161036657829003601f168201915b505050505081565b7f32461e4edcd535d561c8806634f02c499b17fd289bf323d97c4ee98d3bf3ad0c338383604051808473ffffffffffffffffffffffffffffffffffffffff1673ffffffffffffffffffffffffffffffffffffffff16815260200180602001838152602001828103825284818151815260200191508051906020019080838360005b8381101561042757808201518184015260208101905061040c565b50505050905090810190601f1680156104545780820380516001836020036101000a031916815260200191505b5094505050505060405180910390a1816000908051906020019061047992919061048b565b50806001819055505050565b60015481565b828054600181600116156101000203166002900490600052602060002090601f016020900481019282601f106104cc57805160ff19168380011785556104fa565b828001600101855582156104fa579182015b828111156104f95782518255916020019190600101906104de565b5b509050610507919061050b565b5090565b61052d91905b80821115610529576000816000905550600101610511565b5090565b9056fea265627a7a723158207d50cc486b295afe7ae567a8f6d2e9c884e1644a2d21e05d1038354b0249676464736f6c634300050c0032",
  "source": "pragma solidity ^0.5.0;\r\n\r\ncontract StorageData {\r\n  string public data;\r\n  uint public id;\r\n  event stored(address _from, string _data, uint _id);\r\n\r\n  function set(string memory _data,uint  _id) public {\r\n    emit stored(msg.sender, _data, _id);\r\n    data = _data;\r\n    id = _id;\r\n  }\r\n\r\n  function read() public view  returns(string memory, uint) {\r\n    return(data, id);\r\n  }\r\n}\r\n",
  "sourcePath": "/mnt/c/Users/WNET/Documents/ibft-besu-dapp/contracts/StorageData.sol",
  "compiler": {
    "name": "solc",
    "version": "0.5.12+commit.7709ece9.Emscripten.clang"
  },
  "schemaVersion": "3.0.20",
  "updatedAt": "2020-01-14T06:35:29.373Z",
  "devdoc": {
    "methods": {}
  },
  "userdoc": {
    "methods": {}
  }
}